:100000000C9436000C9471010C949E010C945C00CD
:100010000C945C000C945C000C945C000C945C00F0
:100020000C945C000C945C000C945C000C945C00E0
:100030000C945C000C945C000C945C000C945C00D0
:100040000C9487030C945C000C9475020C945C0077
:100050000C945C000C945C000C945C000C945C00B0
:100060000C945C000C945C00CB06970711241FBE17
:10007000CFEFD4E0DEBFCDBF11E0A0E0B1E0E2E918
:10008000F1E102C005900D92A439B107D9F712E051
:10009000A4E9B1E001C01D92A533B107E1F710E07A
:1000A000CCE6D0E004C02297FE010E94C508C83605
:1000B000D107C9F70C94F2030C940000FC011582DF
:1000C0001482118210821382128216861786108A79
:1000D000118A0895FC011582148211821082138204
:1000E000128216861786108A118A0895EF92FF925F
:1000F0000F931F937C01CB01F701778366835187B0
:100100004087338722871587048761E070E00E946B
:100110004E0461E070E0F701808591850E944E04F5
:1001200061E070E0F701828593850E944E0461E0F2
:1001300070E0F701848595850E944E041F910F9110
:10014000FF90EF900895CF93DF93EC01613071053C
:10015000B9F0623071051CF4672B49F047C062307A
:10016000710519F16330710509F040C027C061E0E5
:1001700070E08E819F810E94880460E070E008C07A
:1001800060E070E08E819F810E94880461E070E0F1
:10019000888599850E94880461E070E08A859B8546
:1001A0000E94880460E070E01DC060E070E08E8115
:1001B0009F810E94880461E070E008C061E070E007
:1001C0008E819F810E94880460E070E08885998517
:1001D0000E94880460E070E08A859B850E94880404
:1001E00061E070E08C859D850E948804DF91CF914D
:1001F00008950F931F93CF93DF93EC018B0139C0C8
:100200000E94AC032E853F8548895989621B730B78
:10021000840B950B28813981442737FD4095542F55
:10022000621773078407950758F38C819D8164E0FA
:1002300070E00E945F08BC0197FF03C07095619554
:100240007F4FCE010E94A3000E94AC036E877F8780
:10025000888B998B8A819B812C813D81019719F430
:100260002F5F3F4F02C0215030403D832C8301500F
:1002700010401016110624F2DF91CF911F910F91BB
:1002800008958230E8F4E82FFF27EE0FFF1FEC56A9
:10029000FE4F71836083882341F4809169008C7FD5
:1002A000842B80936900E89A089580916900837F88
:1002B000440F551F440F551F842B80936900E99A02
:1002C0000895823068F4882311F4E89801C0E99811
:1002D000E82FFF27EE0FFF1FEC56FE4F1182108212
:1002E00008951F920F920FB60F9211242F933F93F0
:1002F0004F935F936F937F938F939F93AF93BF932E
:10030000EF93FF938091940190919501892B29F0AF
:10031000E0919401F09195010995FF91EF91BF91C2
:10032000AF919F918F917F916F915F914F913F918D
:100330002F910F900FBE0F901F9018951F920F9244
:100340000FB60F9211242F933F934F935F936F93A8
:100350007F938F939F93AF93BF93EF93FF9380917E
:10036000960190919701892B29F0E0919601F091E7
:1003700097010995FF91EF91BF91AF919F918F9157
:100380007F916F915F914F913F912F910F900FBE91
:100390000F901F901895880F991F880F991FE09153
:1003A0003801F0913901E80FF91F8081918108959A
:1003B000880F991F880F991FE0913801F09139013A
:1003C000E80FF91F828193810895880F991FE091AA
:1003D0001A01F0911B01E80FF91F808191810895A6
:1003E000880F991F880F991FE0910001F09101017A
:1003F000E80FF91F828193810895EF92FF920F9386
:100400001F937B018C0122E030E040E050E00E942D
:100410009408205C3D4B404F5F4FCA01B901A801D1
:1004200097010E9494082150304040405040BB2723
:1004300057FDBA95A52F942F832F2F5F3F4F4F4F16
:100440005F4F8093C50021502093C400E1ECF0E0A1
:1004500080818061808380818860808380818068E2
:1004600080831F910F91FF90EF900895982F8091B6
:10047000C00085FFFCCF9093C600089580919A013B
:1004800090919B012091980130919901821B930BCF
:1004900060E870E00E945F080895409198015091D3
:1004A000990180919A0190919B018417950719F405
:1004B0008FEF9FEF0895FA01EB54FE4F2081CA01A0
:1004C000019660E870E00E945F0890939901809324
:1004D0009801822F99270895809198019091990110
:1004E00090939B0180939A0108951F920F920FB6EB
:1004F0000F9211242F933F934F935F936F937F93AA
:100500008F939F93AF93BF93EF93FF934091C60058
:10051000E0919A01F0919B01CF01019660E870E0B3
:100520000E945F089C018091980190919901281781
:10053000390739F0EB54FE4F408330939B012093F1
:100540009A01FF91EF91BF91AF919F918F917F9110
:100550006F915F914F913F912F910F900FBE0F9030
:100560001F90189508950E94360208958AE00E940F
:10057000B3020895CF93DF93EC0103C021960E944C
:10058000B30288818823D1F7DF91CF9108952F920C
:100590003F924F925F926F927F928F929F92AF9213
:1005A000BF92CF92DF92EF92FF920F931F93CF9360
:1005B000DF93CDB7DEB7A0970FB6F894DEBF0FBEBE
:1005C000CDBF6B017C0119012A01611571058105FF
:1005D000910521F480E30E94B3024BC06624772486
:1005E00043015E010894A11CB11C8501060D171D75
:1005F000C701B601A20191010E947208F80160834F
:100600000894611C711C811C911CC701B601A201D8
:1006100091010E94720869017A0121153105410595
:10062000510519F773010894E108F108EA0CFB1C65
:10063000AA24BB24650111C0F70180818A3010F41F
:10064000805D01C0895C0E94B3020894A108B108D2
:10065000C108D1080894E108F10888279927DC012E
:1006600086199709A809B909A816B906CA06DB06AA
:1006700019F7A0960FB6F894DEBF0FBECDBFDF917D
:10068000CF911F910F91FF90EF90DF90CF90BF908F
:10069000AF909F908F907F906F905F904F903F9022
:1006A0002F900895EF92FF920F931F937B018C017F
:1006B00097FF0BC08DE20E94B30210950095F09455
:1006C000E094E11CF11C011D111D2AE030E040E026
:1006D00050E0C801B7010E94C7021F910F91FF901F
:1006E000EF90089520E130E040E050E00E94C70222
:1006F000089528E030E040E050E00E94C7020895ED
:1007000022E030E040E050E00E94C70208951F92CE
:100710000F920FB60F9211248F939F93AF93BF93B5
:100720008091B1019091B201A091B301B091B40157
:100730000196A11DB11D8093B1019093B201A093C8
:10074000B301B093B401BF91AF919F918F910F907E
:100750000FBE0F901F9018956091B1017091B2017A
:100760008091B3019091B401E7E0660F771F881F75
:10077000991FEA95D1F72DE730E040E050E00E9464
:100780007208CA01B9010895AF92BF92CF92DF9269
:10079000EF92FF920F931F935B016C010E94AC03D9
:1007A0007B018C010E94AC036E197F09800B910BB9
:1007B0006A157B058C059D05A8F31F910F91FF908D
:1007C000EF90DF90CF90BF90AF900895019749F0E0
:1007D000880F991F880F991F0297F8940197F1F7D6
:1007E00078940895CFEFD4E0DEBFCDBF7894109217
:1007F000B1011092B2011092B3011092B40184B50C
:10080000826084BD84B5816084BD85B5826085BD0C
:1008100085B5816085BD80916E00816080936E009A
:10082000809181008260809381008091810081604D
:10083000809381008091800081608093800080910E
:10084000B10084608093B1008091B000816080939A
:10085000B00080917C008F7780937C0080917C0039
:10086000806480937C0080917A00846080937A0019
:1008700080917A00826080937A0080917A00816012
:1008800080937A0080917A00806880937A00109239
:10089000C1000E9486060E949706FDCFCF93DF938A
:1008A000880F991F880F991FA0913801B0913901C5
:1008B000A80FB91FED91FC911197309731F1EE0F10
:1008C000FF1FED014A815B81672B81F4EA57FE4FE0
:1008D0000190F081E02D20A181E090E002C0880F1E
:1008E000991F4A95E2F7809528230EC0EA57FE4FDC
:1008F0000190F081E02D20A181E090E002C0880FFE
:10090000991F4A95E2F7282B20A3DF91CF910895F4
:10091000CF93DF939C01880F991F880F991FA09197
:100920003801B0913901A80FB91F4D915C91119711
:100930004115510509F45CC0220F331FE0911A01E3
:10094000F0911B01E20FF31F0190F081E02DE230E6
:10095000F10521F4809180008F7706C0E330F10526
:1009600031F4809180008F7D809380001AC0309791
:1009700019F484B58F7705C0E130F10521F484B511
:100980008F7D84BD0EC0E530F10521F48091B0006B
:100990008F7705C0369729F48091B0008F7D8093C2
:1009A000B000FA01EE0FFF1FED014A815B81672B5A
:1009B00081F4E458FE4F0190F081E02D20A181E008
:1009C00090E002C0880F991F4A95E2F7809528238E
:1009D0000EC0E458FE4F0190F081E02D20A181E08F
:1009E00090E002C0880F991F4A95E2F7282B20A3B8
:1009F000DF91CF9108959F92AF92BF92CF92DF92F5
:100A0000EF92FF920F931F93CF93DF936C017B01C3
:100A10005A01922EC0E0D0E007E010E0692D772760
:100A2000A114B10439F40C2E02C0759567950A948F
:100A3000E2F706C0002E02C0759567950A94E2F7AA
:100A400061707070C6010E94880461E070E0C701A7
:100A50000E94880460E070E0C7010E94880421962B
:100A600001501040C830D105C9F6DF91CF911F91D8
:100A70000F91FF90EF90DF90CF90BF90AF909F903D
:100A800008950F931F93CF93DF938C01EB0161E0E7
:100A900070E00E944E04C801880F991FE0911A016E
:100AA000F0911B01E80FF91F0190F081E02DE23079
:100AB000F10551F480918000806880938000D0938C
:100AC0008900C09388003CC0E330F10551F4809167
:100AD0008000806280938000D0938B00C0938A0056
:100AE0002FC0309729F484B5806884BDC7BD28C065
:100AF000E130F10529F484B5806284BDC8BD20C011
:100B0000E530F10541F48091B00080688093B00039
:100B1000C093B30015C0369741F48091B000806255
:100B20008093B000C093B4000BC0C038D1051CF452
:100B300060E070E002C061E070E0C8010E948804DB
:100B4000DF91CF911F910F910895CF93DF939C0177
:100B5000880F991F880F991FC0913801D0913901D2
:100B6000C80FD91FA881B981109719F480E090E0CF
:100B700045C0220F331FE0911A01F0911B01E20FD3
:100B8000F31F0190F081E02DE230F10521F4809116
:100B900080008F7706C0E330F10531F4809180004A
:100BA0008F7D809380001AC0309719F484B58F77B9
:100BB00005C0E130F10521F484B58F7D84BD0EC000
:100BC000E530F10521F48091B0008F7705C03697AC
:100BD00029F48091B0008F7D8093B000AA0FBB1FD5
:100BE000AE58BE4FED91FC9180A199270A8002C0BA
:100BF000959587950A94E2F781709070DF91CF9177
:100C00000895CF93DF93880F991F880F991FA091A4
:100C10003801B0913901A80FB91FED91FC911197DE
:100C2000EE0FFF1FEE58FE4F0190F081E02DED0119
:100C30008A819B81A1E0B0E0082E02C0AA0FBB1FF1
:100C40000A94E2F720E030E0672B11F021E030E079
:100C5000B90102C0660F771F8A95E2F7EF01A096EF
:100C600080A199278A239B2386179707C9F720E03D
:100C700030E040E050E004C02F5F3F4F4F4F5F4FE8
:100C8000888199278A239B2386179707A9F3CA018E
:100C9000B90124E130E040E050E00E94400827E143
:100CA00030E040E050E00E947208CA01B901DF91D3
:100CB000CF91089520917C00207F880F991F880F85
:100CC000991FE0910001F0910101E80FF91F828165
:100CD0008F70282B20937C0061E070E080E090E032
:100CE0000E94C40380917A00806480937A0080918E
:100CF0007A0086FDFCCF20917800809179009927B9
:100D0000982F88273327822B932B08950F931F93B7
:100D10000BE010E02AE030E049E050E068E070E0ED
:100D20008CE991E00E9476001F910F91089580E078
:100D300090E00E945A0664E070E00E945F082091F3
:100D40009C0130919D01C901861B970B181619064D
:100D50001CF0CB01821B930B0B9724F070939D0129
:100D600060939C0183E090E00E94A50590939F0111
:100D700080939E0161E070E08CE991E00E94F900AF
:100D80000895019739F46F5F7F4F21F48CE991E06A
:100D90000E946A0008956FEF7FEF81E090E00E946B
:100DA000C106089508950895CB01BA010E94FD017E
:100DB00008950E943E02992708950E944D020895C9
:100DC0000E946C020895862F0E94B3020895CB0101
:100DD0000E94BA020895862F0E94B30208950F93CD
:100DE0001F938C016DE00E94E3066AE0C8010E9437
:100DF000E3061F910F9108950F931F938C010E949A
:100E0000E306C8010E94EF061F910F9108950F930A
:100E10001F938C010E94E706C8010E94EF061F91F4
:100E20000F9108950F931F938C010E94EB06C80148
:100E30000E94EF061F910F910895CB01BA0133274D
:100E4000442755270E94C70208952AE00E941D07E3
:100E500008950F931F938C010E942507C8010E94DB
:100E6000EF061F910F910895AB01662777270E9427
:100E700025070895EF92FF920F931F93CF93DF936F
:100E8000EC017A018B0177FF0BC06DE20E94E30653
:100E900010950095F094E094E11CF11C011D111DCA
:100EA0002AE0B801A701CE010E941D07DF91CF9172
:100EB0001F910F91FF90EF9008950F931F938C0156
:100EC0000E943A07C8010E94EF061F910F910895F2
:100ED0002115310521F4642F0E94E30608952A307C
:100EE000310519F40E943A0708950E941D070895DC
:100EF0000F931F938C010E946807C8010E94EF06A0
:100F00001F910F910895AB01662757FD6095762FCD
:100F10000E943A0708950F931F938C010E94830744
:100F2000C8010E94EF061F910F910895089508953A
:100F3000009711F00E9435080895EF92FF920F93E9
:100F40001F937B018C01611571058105910529F4C1
:100F500060E070E080E090E00CC00E943008AA27BA
:100F600097FDA095BA2FBC01CD01A80197010E9461
:100F700094081F910F91FF90EF900895EF92FF92C8
:100F80000F931F937B018C016217730784079507EA
:100F900064F4261B370B480B590BCA01B9010E9498
:100FA0009D07E60EF71E081F191FC801B7011F9104
:100FB0000F91FF90EF900895AF92BF92CF92DF9282
:100FC000EF92FF920F931F93CF93DF93EC01E88092
:100FD000F9800A811B81C801B7012DE133EF41E09F
:100FE00050E00E94720827EA31E440E050E00E949D
:100FF00040085B016C01C801B7012DE133EF41E00E
:1010000050E00E947208CA01B90124E13BE040E0CF
:1010100050E00E944008A61AB70AC80AD90A1A1452
:101020001B041C041D0444F08FEF9FEFAFEFBFE7DC
:10103000A80EB91ECA1EDB1EA882B982CA82DB8234
:10104000C5019F77DF91CF911F910F91FF90EF9096
:10105000DF90CF90BF90AF9008950E94DC07089575
:1010600080E991E00E94DC070895AA27BB278093BE
:10107000900190939101A0939201B09393010895F0
:10108000629FD001739FF001829FE00DF11D649F6C
:10109000E00DF11D929FF00D839FF00D749FF00DF8
:1010A000659FF00D9927729FB00DE11DF91F639F99
:1010B000B00DE11DF91FBD01CF011124089597FB6B
:1010C000092E07260AD077FD04D049D006D000208B
:1010D0001AF4709561957F4F0895F6F79095819574
:1010E0009F4F0895A1E21A2EAA1BBB1BFD010DC044
:1010F000AA1FBB1FEE1FFF1FA217B307E407F507C8
:1011000020F0A21BB30BE40BF50B661F771F881FA3
:10111000991F1A9469F760957095809590959B0139
:10112000AC01BD01CF01089597FB092E05260ED015
:1011300057FD04D0D7DF0AD0001C38F450954095F5
:10114000309521953F4F4F4F5F4F0895F6F790959B
:101150008095709561957F4F8F4F9F4F0895AA1B83
:10116000BB1B51E107C0AA1FBB1FA617B70710F092
:10117000A61BB70B881F991F5A95A9F780959095C4
:10118000BC01CD010895EE0FFF1F0590F491E02DF5
:021190000994C0
:10119200020103000000030001000300020003003B
:1011A200030003000400030005001C01FFFFFFFF12
:1011B200FFFF0600FFFF01000000FFFFFFFF02002C
:1011C20003000500FFFFFFFF3A01040000000400D6
:1011D20001000400020004000300040004000400F3
:1011E20005000400060004000700020000000200DF
:1011F20001000200020002000300020004000200DB
:101202000500FFFFFFFF030006000900FFFFFFFFCD
:10121200050008000B00FFFFFFFF040007000A00A3
:0412220001000000C7
:00000001FF
